:100000000C945C050C9484050C9484050C94840574
:100010000C9484050C9484050C9484050C9484053C
:100020000C9484050C9484050C9484050C9484052C
:100030000C9484050C9484050C9484050C9484051C
:100040000C94591F0C9484050C94C91F0C94A31F85
:100050000C9484050C9484050C9484050C948405FC
:100060000C94FB1F0C948405084AD73B3BCE016ED1
:1000700084BCBFFDC12F3D6C74319ABD56833DDAFF
:100080003D00C77F11BED9E4BB4C3E916BAAAABE0E
:10009000000000803F0000000000003E5B4F5B3E20
:1000A0003E6B4F6B3E1C3E7C3E1C183C7E3C181C3D
:1000B000577D571C1C5E7F5E1C00183C1800FFE734
:1000C000C3E7FF0018241800FFE7DBE7FF30483ADA
:1000D000060E2629792926407F050507407F05253C
:1000E0003F5A3CE73C5A7F3E1C1C08081C1C3E7FC4
:1000F00014227F22145F5F005F5F06097F017F008B
:100100006689956A606060606094A2FFA2940804AA
:100110007E040810207E201008082A1C08081C2ACB
:1001200008081E101010100C1E0C1E0C30383E3823
:1001300030060E3E0E06000000000000005F0000CA
:100140000007000700147F147F14242A7F2A12233B
:100150001308646236495620500008070300001C4B
:100160002241000041221C002A1C7F1C2A08083E54
:100170000808008070300008080808080000606067
:100180000020100804023E5149453E00427F4000D5
:1001900072494949462141494D331814127F1027AD
:1001A000454545393C4A49493141211109073649FC
:1001B000494936464949291E0000140000004034D0
:1001C00000000008142241141414141400412214D5
:1001D0000802015909063E415D594E7C1211127CFC
:1001E0007F494949363E414141227F4141413E7F5D
:1001F000494949417F090909013E414151737F083D
:1002000008087F00417F41002040413F017F0814E2
:1002100022417F404040407F021C027F7F04081043
:100220007F3E4141413E7F090909063E4151215E21
:100230007F09192946264949493203017F01033FB5
:100240004040403F1F2040201F3F4038403F631444
:1002500008146303047804036159494D43007F4146
:1002600041410204081020004141417F0402010283
:1002700004404040404000030708002054547840A8
:100280007F284444383844444428384444287F383C
:100290005454541800087E090218A4A49C787F08BE
:1002A00004047800447D40002040403D007F102839
:1002B000440000417F40007C047804787C080404FA
:1002C000783844444438FC1824241818242418FC92
:1002D0007C08040408485454542404043F44243C37
:1002E0004040207C1C2040201C3C4030403C4428A6
:1002F0001028444C9090907C4464544C4400083640
:1003000041000000770000004136080002010204AD
:10031000023C2623263C1EA1A161123A4040207ACD
:100320003854545559215555794122545478422115
:100330005554784020545579400C1E52721239554C
:100340005555593954545459395554545800004549
:100350007C410002457D420001457C407D12111226
:100360007DF0282528F07C545545002054547C54B9
:100370007C0A097F4932494949323A4444443A3275
:100380004A4848303A4141217A3A42402078009D1B
:10039000A0A07D3D4242423D3D4040403D3C24FFC7
:1003A0002424487E4943662B2FFC2F2BFF0929F676
:1003B00020C0887E090320545479410000447D41C7
:1003C0003048484A32384040227A007A0A0A727D20
:1003D0000D19317D2629292F28262929292630483B
:1003E0004D4020380808080808080808382F10C8A9
:1003F000ACBA2F102834FA00007B000008142A142D
:100400002222142A14085500550055AA55AA55AAA7
:10041000FF55FF55FF000000FF00101010FF0014F3
:100420001414FF001010FF00FF1010F010F014144F
:1004300014FC001414F700FF0000FF00FF1414F474
:1004400004FC141417101F10101F101F1414141F75
:1004500000101010F0000000001F101010101F10EE
:10046000101010F010000000FF10101010101010ED
:100470001010FF10000000FF140000FF00FF00003C
:100480001F10170000FC04F414141710171414F4B0
:1004900004F40000FF00F714141414141414F700EB
:1004A000F7141414171410101F101F141414F4143C
:1004B0001010F010F000001F101F0000001F1400AB
:1004C0000000FC140000F010F01010FF10FF1414D6
:1004D00014FF141010101F00000000F010FFFFFFA9
:1004E000FFFFF0F0F0F0F0FFFFFF0000000000FF62
:1004F000FF0F0F0F0F0F3844443844FC4A4A4A3468
:100500007E02020606027E027E026355494163387E
:1005100044443C04407E201E2006027E020299A52F
:10052000E7A5991C2A492A1C4C7201724C304A4D8D
:100530004D303048784830BC625A463D3E494949C2
:10054000007E0101017E2A2A2A2A2A44445F44446B
:1005500040514A444040444A51400000FF0103E0FA
:1005600080FF000008086B6B083612362436060F31
:10057000090F06000018180000001010003040FF9E
:100580000101001F01011E00191D1712003C3C3C17
:100590003C0000000000000103070F1F3F7F0080A8
:1005A000C0E0F0F8FCFEDB40A4A62EAF2000A1C8FE
:1005B000D300408DAED580A8000060000000000090
:1005C000000000000000000000E00000000000004B
:1005D0000000000000000001E0000000000000003A
:1005E00000000000000001F000000000000000001A
:1005F000000000000003F000000000000000000008
:100600000000000007F000000000000000000000F3
:1006100000000007F80000000000000000000000DB
:1006200000000FF800000003C0007E000001E000A1
:100630007F0FF800000003C000FE000001E000FF93
:10064000EFF800000003C000FE000001E000FFFF23
:10065000F800000003C000F00000000F007FFE7FE4
:10066000C0000003C000F00000000F003FFE7FF854
:100670003FF1FBCFFCFEF3BC3DEFE01FFE7FFF7FB1
:10068000FBFFDFFEFEFFBC3DEFE01FC6FFFF7FFB71
:10069000FFDFFEFEFFBC3DEFE00FE3C7FE787BC34C
:1006A000DE1EF0FFBC3DEF0007FF87FC787BC3DE5A
:1006B0001EF0F83C3DEF0001FFFFF0007BC3C01EC1
:1006C000F0F03C3DEF0001F37FE03FFBC3CFFEF0D5
:1006D000F03C3DEF0003E33F807FFBC3DFFEF0F023
:1006E0003C3DEF0007E73C00787BC3DE1EF0F03CAA
:1006F0003DEF0007FFBE00787BC3DE1EF0F03C3DFF
:10070000EF0007FFFE00787BC3DE1EF0F03C3DEFFC
:10071000000FFFFE007FFBFFDFFEF0F03FFDEFE08C
:100720000FFFFF007FFBFFDFFEF0F03FFDEFE00F6C
:10073000F9FF003E79F9CF9EF0F01F3DE7E01FF191
:10074000FF0000000000000000000000001F80FF0C
:10075000007FFFFFFFFFFFFFFFFFFFE01C007F00A8
:100760007FFFFFFFFEB46D888D18E000001F007F43
:10077000FFFFFFFE95AD7DB577E000000F007FFF26
:10078000FFFFFEA5AD9D8D19E0000006007FFFFF75
:10079000FFFEB5ADEDB57EE0000000000001800079
:1007A00000000000000000000380000000000000C6
:1007B00000000007C000000000000000000007C0AB
:1007C0000000000000000000000FC000000000005A
:1007D000000000001FE00000000000000000001FFB
:1007E000E00000000000000000003FE0000000000A
:1007F00000000000003FF0000000000000000000CA
:100800007FF0000000000000001FF87FF0000000F3
:10081000000000003FFE7FF0000000000000003FED
:10082000FF7FF0000000000000001FFFFBE0000061
:1008300000000000000FFFF9FFC0000000000000F2
:100840000FFFF9FFF800000000000007FFF1FFFFB5
:1008500000000000000003FC73FFFF8000000000A8
:100860000001FE3FFFFF80000000000000FF1E0FA0
:10087000FF000000000000007FFE1FFC00000000E1
:100880000000003FFFFFF8000000000000000FDF45
:10089000FFE0000000000000001F19FFC000000082
:1008A000000000003F3CFF00000000000000007E50
:1008B0007CF800000000000000007FFE7C000000CB
:1008C0000000000000FFFFFC00000000000000002E
:1008D000FFFFFE0000000000000000FFFFFE000020
:1008E000000000000001FFEFFE000000000000001B
:1008F00001FFCFFE0000000000000003FF07FE0024
:1009000000000000000003FC07FE000000000000E3
:100910000003F003FE00000000000000018000FE64
:10092000000000000000000000007E000000000049
:1009300000000000003E0000000000000000000079
:100940000C000000000000078000FC000003C00055
:100950000000078001FC000003C0000000078001C8
:10096000FC000003C0000000078001E00000001E42
:10097000000000078001E00000001E007FE3F79FF9
:10098000F9FDE7787BDFC0FFF7FFBFFDFDFF787B58
:10099000DFC0FFF7FFBFFDFDFF787BDFC0F0F7870B
:1009A000BC3DE1FF787BDE00F0F787BC3DE1F078ED
:1009B0007BDE0000F787803DE1E0787BDE007FF79B
:1009C000879FFDE1E0787BDE00FFF787BFFDE1E078
:1009D000787BDE00F0F787BC3DE1E0787BDE00F05D
:1009E000F787BC3DE1E0787BDE00F0F787BC3DE1B6
:1009F000E0787BDE00FFF7FFBFFDE1E07FFBDFC0BB
:100A0000FFF7FFBFFDE1E07FFBDFC07CF3F39F3D1D
:100A1000E1E03E7BCFC000000000000000000000CD
:100A200000FFFFFFFFFFFFFFFFFFFFC0FFFFFFFF14
:100A3000FD68DB111A31C0FFFFFFFFFD2B5AFB6A77
:100A4000EFC0FFFFFFFFFD4B5B3B1A33C0FFFFFF13
:100A5000FFFD6B5BDB6AFDC00001020304052200A1
:100A6000FF210000000000250028002B00000000EE
:100A7000080002010000030407000000000000005D
:100A80000000000000240027002A000102040810D2
:100A900020408001020408102001020408102004F4
:100AA0000404040404040402020202020203030315
:100AB000030303001A21FB2811241FBECFEFD8E047
:100AC000DEBFCDBF24E0ACE2B2E001C01D92A63390
:100AD000B207E1F712E0A0E0B1E0EAE2FBE502C014
:100AE00005900D92AC32B107D9F715E0CBE5D5E012
:100AF00004C02197FE010E946129CA35D107C9F7B8
:100B00000E94CD210C94882D0C9400000895089526
:100B1000089590E0FC01E359F54F2491FC01E5575D
:100B2000F54F3491FC01E156F54FE491EE23C9F005
:100B3000222339F0233001F1A8F4213019F12230B9
:100B400029F1F0E0EE0FFF1FED59F54FA591B4919B
:100B50008FB7F894EC91611126C030953E233C93F9
:100B60008FBF08952730A9F02830C9F0243049F705
:100B7000809180008F7D03C0809180008F7780936B
:100B80008000DFCF84B58F7784BDDBCF84B58F7DC8
:100B9000FBCF8091B0008F778093B000D2CF80914F
:100BA000B0008F7DF9CF3E2BDACF682F8091900374
:100BB0009091910389130C9489050895CF93DF9345
:100BC00090E0FC01E557F54F24918156954FFC01CB
:100BD00084918823D1F090E0880F991FFC01EF5792
:100BE000F54FA591B491FC01ED59F54FC591D49104
:100BF00061110EC09FB7F8948C91E22FE0958E237F
:100C00008C932881E223E8839FBFDF91CF910895E1
:100C10008FB7F894EC91E22BEC938FBFF6CFCF9384
:100C2000CFB7F89480917902811127C0E9EAFAE000
:100C30008491E5E9FAE09491E82FF0E0EE0FFF1FD0
:100C4000EF57F54FA591B491EC91E92321F461E0C0
:100C50008AE00E94890561E08AE00E94DE058CB589
:100C600080618CBD8CB580648CBD61E08DE00E949C
:100C7000DE0561E08BE00E94DE05809179028F5FE6
:100C800080937902CFBFCF9108958230910538F0DB
:100C9000880F991F880F991F05970197F1F70895FD
:100CA000CF93DF93CEE8D3E0682F8B810E94890534
:100CB0008A8D9B8DDF91CF910C944506AF92BF92A8
:100CC000CF92DF92EF92FF920F931F93CF93DF9318
:100CD000EC0188819981892B89F06EBD0DB407FEE6
:100CE000FDCFBEB48B2DDF91CF911F910F91FF905F
:100CF000EF90DF90CF90BF90AF9008958885998551
:100D000011E0892B09F010E8AA24A394862F8123EF
:100D100009F0A12C062F2C813D814E815F8160E27C
:100D200071EA87E090E00E943F29F22EB02EE12C7C
:100D3000C22ED12CFF2019F0C6010E9445068A85DB
:100D4000877F09F042C08D858F3F89F0902F9123D6
:100D500081E009F480E08A1551F0EF85F8898F89E8
:100D6000992369F19081892B8083AA24A394E9892E
:100D7000FA898081998D892B8083FF2019F0C60123
:100D80000E9445068E858F3F39F0EB89FC89808172
:100D9000988D892309F0E12AE989FA899081898D62
:100DA0008095892380838E858F3F09F0BE2C8885AE
:100DB0009985892BB9F5110F1111BCCF93CF908173
:100DC000809589238083A12CD2CFE989FA898081FB
:100DD000998D892B8083FF2019F0C6010E9445065A
:100DE0008D858F3F49F0EF85F8898F89902F91236A
:100DF000A9F09081892B8083E989FA899081898D76
:100E00008095892380838E858F3F69F2EB89FC89E9
:100E10008081988D892339F2E12AC5CF9081809510
:100E20008923E9CF1695C8CF3FB7F8948091750212
:100E300090917602A0917702B091780226B5A89B96
:100E400005C02F3F19F00196A11DB11D3FBFBA2F5C
:100E5000A92F982F8827BC01CD01620F711D811D1C
:100E6000911D42E0660F771F881F991F4A95D1F7A1
:100E700008958F929F92AF92BF92CF92DF92EF929E
:100E8000FF924B015C010E9414076B017C010E94E0
:100E900014076C197D098E099F09683E734081050E
:100EA0009105A8F321E0821A9108A108B10888EE03
:100EB000C80E83E0D81EE11CF11C81149104A1042A
:100EC000B10429F7FF90EF90DF90CF90BF90AF90E3
:100ED0009F908F9008952FB7F89460917102709150
:100EE000720280917302909174022FBF0895AF92A5
:100EF000BF92CF92DF92EF92FF920F931F93CF9307
:100F0000DF936C017B018B01040F151FEB015E0168
:100F1000AE18BF08C017D10759F06991D601ED91FD
:100F2000FC910190F081E02DC6010995892B79F79C
:100F3000C501DF91CF911F910F91FF90EF90DF904E
:100F4000CF90BF90AF900895FC01538D448D252F15
:100F500030E0842F90E0821B930B541710F0CF9653
:100F6000089501970895FC01918D828D981761F085
:100F7000A28DAE0FBF2FB11D5D968C91928D9F5F9C
:100F80009F73928F90E008958FEF9FEF0895FC017B
:100F9000918D828D981731F0828DE80FF11D858D2E
:100FA00090E008958FEF9FEF0895FC01918D228DC1
:100FB000892F90E0805C9F4F821B91098F73992746
:100FC000089580EF92E00E94D50721E0892B09F473
:100FD00020E0822F089580E090E0892B29F00E9484
:100FE000E10781110C9400000895FC01A48DA80F65
:100FF000B92FB11DA35ABF4F2C91848D90E001965B
:101000008F739927848FA689B7892C93A089B1897A
:101010008C91837080648C93938D848D981306C01B
:101020000288F389E02D80818F7D80830895EF927F
:10103000FF920F931F93CF93DF93EC0181E0888F92
:101040009B8D8C8D98131AC0E889F989808185FF62
:1010500015C09FB7F894EE89FF896083E889F98904
:1010600080818370806480839FBF81E090E0DF9106
:10107000CF911F910F91FF90EF900895F62E0B8D59
:1010800010E00F5F1F4F0F731127E02E8C8D8E1114
:101090000CC00FB607FCFACFE889F989808185FF7B
:1010A000F5CFCE010E94F507F1CFEB8DEC0FFD2FB0
:1010B000F11DE35AFF4FF0829FB7F8940B8FEA8936
:1010C000FB8980818062CFCFCF93DF93EC01888D45
:1010D0008823B9F0AA89BB89E889F9898C9185FDB3
:1010E00003C0808186FD0DC00FB607FCF7CF8C9141
:1010F00085FFF2CF808185FFEDCFCE010E94F507FD
:10110000E9CFDF91CF91089508950895EF92FF926E
:101110000F931F93CF93DF93EC01EC80FD806E154E
:101120007F050CF070C057FF04C0240F351F50E03E
:1011300040E08E819F81FA01E20FF31F8E179F0717
:101140001CF49C01241B350B121613060CF05BC01B
:10115000922F842F8695869586958E9DD0018F9DA2
:10116000B00D11246A0F7B1FAF8DB8A1A60FB71F5A
:10117000477049F188E0841B482F682F70E0FB011D
:10118000E256FA4FE491281708F063C0621B710918
:101190002FEF30E002C0359527956A95E2F7E223FC
:1011A0000130110539F0B0F10230110561F58C9173
:1011B000E82702C08C91E82BEC93941720F12C8146
:1011C0003D81A20FB31FE92FE41BE83078F0023015
:1011D000110521F58E2F9C9190959C932C813D813A
:1011E000A20FB31F88508830B0F7E770EE2359F094
:1011F000F0E0EA56FA4FE49101301105F9F010F1F0
:101200000230110519F1DF91CF911F910F91FF90DD
:10121000EF900895E0958C91E823CECF81E0011501
:10122000110509F480E081959E2F8C932C813D81DE
:10123000A20FB31F98509830C0F7D7CF8C91E82BEE
:10124000EC93E1CFE0958C91E823FACF8C91E827DD
:10125000F7CF0130110509F4ADCFE0F202301105EE
:1012600009F4A5CFAE0DBF1DAECF0F931F93CF9343
:10127000DF9377FF04C0260F371F70E060E0DC01CA
:101280001496CD91DC91FB01E20FF31FCE17DF071F
:101290001CF49E01261B370B121613064CF5FA019F
:1012A00057FD3796A3E0F595E795AA95E1F7EC9FF2
:1012B000D001ED9FB00DFC9FB00D11246A0F7B1F74
:1012C000DC015F96ED91FC91E60FF71F4770552703
:1012D00081E090E001C0880F4A95EAF7482F01307D
:1012E000110559F0A8F02E0F3F1F02301105E1F053
:1012F000DF91CF911F910F9108952E0F3F1FE2179D
:10130000F307B1F38191DF011197842B8C93F7CF11
:1013100080952E0F3F1FE217F30751F39191DF01E4
:10132000119798239C93F7CFE217F30709F3819164
:10133000DF01119784278C93F7CF0F931F93FA0146
:10134000DC0156964C9156974230E9F04330A1F1BA
:10135000413061F514964D915C91DA01AE1BBF0BE3
:10136000FD01E21BF30B77FD0BC0DC0116964D91DE
:101370005C916417750724F4AB01BF010E94350925
:101380001F910F91089514964D915C91DA01A61B5F
:10139000B70BBD0161507109DC0116964D915C914E
:1013A000DA01AE1BBF0BFD01E21BF30B77FDE8CFAB
:1013B000AF010E948608E4CF16964D915C91DA0148
:1013C000A61BB70BBD0161507109CDCF0F931F93C1
:1013D000FA01DC0156964C9156974230A9F0433001
:1013E00091F1413019F514964D915C91DA01AE1BE3
:1013F000BF0BFD013197F7FD04C0AB01BF010E9497
:1014000086081F910F91089514964D915C91DA0111
:10141000A61BB70BBD01DC0116964D915C91DA015C
:10142000AE1BBF0BFD013197621B730BF7FDE9CFBC
:10143000DC0116964D915C91E417F50714F7AF01A6
:101440000E943509DECF16964D915C91DA01A61BFC
:10145000B70BBD01621B730BCECFFC0177FD64C0DF
:1014600080859185681779070CF05EC057FD5CC0D8
:1014700082859385481759070CF056C086898230BB
:10148000B1F0833029F1813041F484819581841B4E
:10149000950BAB01BC01615071092130310509F197
:1014A00008F443C02230310509F463C008958481F3
:1014B0009581DC01A61BB70BBD01615071098681C6
:1014C0009781DC01A41BB50BAD0141505109E5CF5B
:1014D00086819781861B970BBA01AC014150510957
:1014E000DCCFCA0157FD0796A3E095958795AA958D
:1014F000E1F7A481B5818A9F90018B9F300D9A9F5F
:10150000300D1124620F731F078CF0A1E02DE60F40
:10151000F71F4770552721E030E001C0220F4A95A0
:10152000EAF78081822B80830895CA0157FD0796D0
:1015300033E0959587953A95E1F7A481B5818A9F27
:1015400090018B9F300D9A9F300D1124620F731FF5
:10155000078CF0A1E02DE60FF71F4770552781E0BB
:1015600090E001C0880F4A95EAF780959081892321
:10157000DACFCA0157FD079623E0959587952A95FE
:10158000E1F7A481B5818A9F90018B9F300D9A9FCE
:10159000300D1124620F731F078CF0A1E02DE60FB0
:1015A000F71F4770552721E030E001C0220F4A9510
:1015B000EAF780818227B7CF089581E00C94500626
:1015C000FC0183858F3F19F061E00C948905089533
:1015D0008EBD00000DB407FEFDCF8EB508958CBD05
:1015E0009DBD0895CF93DF93EC0188819981892B6C
:1015F00031F0EA81FB81808191810E94EF0A8B8525
:101600008F3F29F060E0DF91CF910C948905DF9145
:10161000CF9108958F929F92AF92BF92CF92DF9217
:10162000EF92FF920F931F93CF93DF937C014B01B7
:101630006A01B22EA32E0E94F20AE401C80CD91C42
:10164000CC15DD0569F4CB2DDA2D0C0F1D1FC0174D
:10165000D10759F06FEFC7010E945E068993F7CF5B
:101660006991C7010E945E06EBCFC7010E94E00AA4
:1016700081E0DF91CF911F910F91FF90EF90DF906C
:10168000CF90BF90AF909F908F9008958F929F9230
:10169000AF92BF92CF92DF92EF92FF920F931F9380
:1016A000CF93DF937C01B62EA72E6A0149010E94D9
:1016B000F20AE401080D191DC017D10761F4CB2D02
:1016C000DA2DCC0EDD1ECC15DD0551F06991C70178
:1016D0000E945E06F8CF6991C7010E945E06ECCFBA
:1016E000C7010E94E00A81E0DF91CF911F910F9125
:1016F000FF90EF90DF90CF90BF90AF909F908F9032
:1017000008950895FC016370668B8481958126811C
:101710003781613039F0633029F0918780873387D2
:1017200022870895318720879387828708952F9293
:101730003F924F925F926F927F928F929F92AF9261
:10174000BF92CF92DF92EF92FF920F931F93CF93AE
:10175000DF93CDB7DEB76A970FB6F894DEBF0FBE42
:10176000CDBF9A8F898F7A8369834A01D22E1887D9
:101770000F833701BC2CDC0159962D913C915A976F
:101780002115310509F015C118968D919C91199775
:10179000681779070CF0D7C11A968D919C9148175C
:1017A00059070CF0D0C14C2C512CB6E0CB9E600DEB
:1017B000711D11247C876B87161617060CF0C3C1A8
:1017C000EA2DF0E0FA87E98793E0EE0FFF1F9A9584
:1017D000E1F7F88BEF87CF01840F951F18161906D4
:1017E0000CF0B1C1A98DBA8D58968C91811104C0AD
:1017F000BFEABD1508F4D394A98DBA8DED91FC9183
:1018000011970284F385E02DCD010995B5E0DB9EAB
:10181000C0011124E981FA81FC83EB83312C212C56
:101820009C012A563F4F388F2F8B4A2D50E05E8BFC
:101830004D8BEF89F88DE20DF31D44919E828D82D0
:10184000D12CC12C69817A81620D731D7A8B698BD1
:10185000842F90E09C8B8B8BE98DFA8DA081B181D8
:1018600040FF82C0F1E0BF126FC0AF126DC01C9686
:10187000ED91FC912F813885A4014C0D5D1D698986
:101880007A89898D9A8D0995EB89FC89F595E7957B
:101890004E2F5FEFC51AD50A6D817E818D899E8995
:1018A000680F791F7E836D8398E0C916D10481F695
:1018B000AFEF2A1A3A0AEB81FC81E40DF51DFC8397
:1018C000EB83F5E02F16310409F0B3CF2F81388573
:1018D00026153705B9F0A98DBA8DED91FC91B1E0CF
:1018E000BB1257C0AB1255C069817A816B5F7F4FC5
:1018F0000088F189E02D830128E030E0A401898D82
:101900009A8D0995A98DBA8DED91FC911197068854
:10191000F789E02DCD016A960FB6F894DEBF0FBEB1
:10192000CDBFDF91CF911F910F91FF90EF90DF908E
:10193000CF90BF90AF909F908F907F906F905F906F
:101940004F903F902F9009941E96ED91FC91EF805F
:10195000F88409851A8592014D815E816B817C81B5
:10196000898D9A8D099590CF2F8138852615370559
:1019700009F48ACF31E0B31207C0A31205C01C9648
:10198000ED91FC91930178CF1E96ED91FC9173013E
:10199000E0CF6B857C85641975090684F785E02D99
:1019A00073010F8518899201A401898D9A8D09957B
:1019B000A9CFF90134969491329745915491D91A4F
:1019C000B7E0DB9E400D511D1124F90125913491A2
:1019D0003C8B2B8BFA0125903490FA01329674904F
:1019E00031963491398B329664903196449041E02F
:1019F0004C1518F04A1508F07FC0662D062C000C17
:101A0000770B7C836B83842D042C000C990B9E83B5
:101A10008D83A98DBA8DED91FC9111970284F38588
:101A2000E02DCD010995512CD12CC12CEA2DF0E0EF
:101A3000FA87E9872B2D30E03C872B87A401440DE2
:101A4000511D47FC5A95588F4F8B69817A81660DDD
:101A5000711D67FC7A957E876D877989C71608F0B6
:101A600051CF2C2D30E04D815E81420F531FA9854F
:101A7000BA854A9FC0014B9F900D5A9F900D11242B
:101A8000FC01E80DF91DF88BEF87852D612C4F893E
:101A9000588D420F531F5E8B4D8B671408F050C05A
:101AA00044244394480E877041F4C1010196EB89A8
:101AB000FC89E20DF31DD4901C01D7FE19C0A98D3D
:101AC000BA8DED91FC91662D70E0B1E0BB1219C0AA
:101AD000AB1217C02D853E85620F731F0484F585F8
:101AE000E02D2F8138854D895E89898D9A8D0995E4
:101AF000DD0C6394842DD1CF1E821D821C821B823B
:101B000088CF4B815C81640F751FAB85BC856A9F54
:101B1000C0016B9F900D7A9F900D112469817A818D
:101B2000680F791F0684F785E02DEF80F88409851A
:101B30001A859D014F855889898D9A8D0995D8CF31
:101B4000570CC3948ACF6A960FB6F894DEBF0FBEC7
:101B5000CDBFDF91CF911F910F91FF90EF90DF905C
:101B6000CF90BF90AF909F908F907F906F905F903D
:101B70004F903F902F9008958F929F92AF92CF9267
:101B8000EF92FF920F931F93CF93DF93EC01262FD9
:101B9000898D9A8D009709F051C06A30D1F41D8665
:101BA0001C868D8948E0849F900111248E859F8535
:101BB000820F931F9F878E8781E090E0DF91CF9106
:101BC0001F910F91FF90EF90CF90AF909F908F90CB
:101BD00008956D3089F3CC88AD888F898823C1F052
:101BE0008C859D8536E0C39E800D911D112448850E
:101BF00059854817590764F44E855F851D861C86F4
:101C000038E0A39EC0011124840F951F9F878E8703
:101C1000EA88FB88088919894E855F856C857D85F2
:101C2000CE010E94970B2C898C859D8546E0249FD0
:101C3000800D911D11249D878C87BECF6A3069F479
:101C40001D861C86FC013896E4912D898E859F8522
:101C5000E29F800D911D1124ADCF6D3009F4ACCF02
:101C6000FC0134963491631708F4A6CF3296E491C0
:101C7000E61708F4A1CFFC01329685909490462F88
:101C8000431B342F47E0349F800C911C1124F40136
:101C9000329634913196E4913323A9F1EE2399F1F0
:101CA000CC88F4013596E491AD884F89442301F145
:101CB0000E2E000CFF0BE30FF11DCE9EA001CF9E58
:101CC000500D11246C857D85460F571F68857985D9
:101CD000641775076CF44E855F851D861C86FC01B4
:101CE0003896E491AE9E400D511D11245F874E87BA
:101CF000EA88FB88088919894E855F856C857D8512
:101D0000CE010E94970BF4013496E4912C898C85C6
:101D10009D85E29F800D911D11248DCF6F927F9242
:101D20008F929F92AF92BF92CF92DF92EF92FF92EB
:101D30000F931F93CF93DF93EC016B015A0139018D
:101D40004801E881F9810284F385E02D0995E88155
:101D5000F9810288F389E02D87019301A501B6017D
:101D6000CE010995A501480D591D41505109E88141
:101D7000F9810288F389E02D9301B601CE0109951E
:101D8000E881F9810088F189E02D9401A501B6016F
:101D9000CE010995C60CD71CB60161507109E881C6
:101DA000F9810088F189E02D9401A501CE01099502
:101DB000E881F9810688F789E02DCE01DF91CF9186
:101DC0001F910F91FF90EF90DF90CF90BF90AF9059
:101DD0009F908F907F906F9009946F927F928F92D7
:101DE0009F92AF92BF92CF92DF92EF92FF920F93AA
:101DF0001F93CF93DF935C01EB016A014901380126
:101E00008701DC01ED91FC916217730719F56416E7
:101E100075062CF0962D872D3A01C92ED82E9601E5
:101E2000261937092F5F3F4F048CF58DE02DA30154
:101E3000BE01C5010995DF91CF911F910F91FF90D0
:101E4000EF90DF90CF90BF90AF909F908F907F905A
:101E50006F9008954615570591F42617370724F01B
:101E6000892D4B01C22FD82F9E01281939092F5FC8
:101E70003F4F068CF78DE02DA601B401DACF028426
:101E8000F385E02D0995D501ED91FC910488F58944
:101E9000E02D83019401A601BE01C5010995D5017C
:101EA000ED91FC910688F789E02DC501DF91CF9176
:101EB0001F910F91FF90EF90DF90CF90BF90AF9068
:101EC0009F908F907F906F900994EF92FF920F9365
:101ED0001F93DC011A960D911C911B9718962D915A
:101EE0003C911997ED91FC9100A0F1A1E02D7B01AF
:101EF00050E040E070E060E009951F910F91FF9085
:101F0000EF9008954F925F926F927F928F929F927F
:101F1000AF92BF92CF92DF92EF92FF920F931F93F7
:101F2000CF93DF936C012B015A0139014801DC0189
:101F3000ED91FC910284F385E02D0995E201640C9A
:101F4000751CD601ED91FC91C615D7055CF400888F
:101F5000F189E02D87019401A501BE01C601099513
:101F60002196EFCF0688F789E02DC601DF91CF914A
:101F70001F910F91FF90EF90DF90CF90BF90AF90A7
:101F80009F908F907F906F905F904F9009948F9269
:101F90009F92AF92BF92CF92DF92EF92FF920F93F8
:101FA0001F93CF93DF93EC015B014A016901E88144
:101FB000F9810284F385E02D099595012C0D3D1DD5
:101FC00021503109E881F9810488F589E02D7801F3
:101FD0008401A401B501CE010995E881F981068843
:101FE000F789E02DCE01DF91CF911F910F91FF90E6
:101FF000EF90DF90CF90BF90AF909F908F9009941B
:102000008F929F92AF92BF92CF92DF92EF92FF9208
:102010000F931F93CF93DF93EC015B014A0169019A
:102020007801E881F9810284F385E02D0995C80CD7
:10203000D91C860101501109E881F9810488F589CC
:10204000E02D9501A401B501CE010995E881F98142
:102050000688F789E02DCE01DF91CF911F910F9176
:10206000FF90EF90DF90CF90BF90AF909F908F90B8
:102070000994EF92FF920F931F93DC01ED91FC9175
:1020800000A0F1A1E02D09951F910F91FF90EF9015
:1020900008950F931F93DC01ED91FC91068CF78D51
:1020A000E02D09951F910F9108950F931F93DC0167
:1020B000ED91FC91048CF58DE02D09951F910F9108
:1020C0000895DC01ED91FC910084F185E02D0994E7
:1020D0003F924F925F926F927F928F929F92AF92B8
:1020E000BF92CF92DF92EF92FF920F931F93CF9305
:1020F000DF935C017B014A016901390187E0680EC9
:10210000711C93E0759467949A95E1F72B01400E4A
:10211000511E10E000E0312CD0E0C0E0CE0187700D
:102120009927330C892B59F4FE0183E0F595E79547
:102130008A95E1F7E00FF11FE80DF91D349037FEA5
:102140000AC021E030E0A701B5016C0F7D1F82EFCE
:1021500093E00E9461102196CC16DD06F9F68FEF10
:10216000E81AF80A060D171DE414F504A9F6DF9124
:10217000CF911F910F91FF90EF90DF90CF90BF9084
:10218000AF909F908F907F906F905F904F903F9017
:1021900008952F923F924F925F926F927F928F920B
:1021A0009F92AF92BF92CF92DF92EF92FF920F93E6
:1021B0001F93CF93DF9300D000D000D0CDB7DEB710
:1021C0003C016A013E832D83FC82EB825801A41AF4
:1021D000B50AB7FE03C0B194A194B1088D809E806A
:1021E000861A970A97FE03C09194819491088A14E5
:1021F0009B045CF0902F812F0D811E819D838E8327
:102200009C2D8D2D6B01692F782F0C151D055CF011
:102210009D818E817E836D83692F782F902F812FF2
:102220008601C92ED82E1601201A310A2B012D81C4
:102230003E81421A530A57FE03C0519441945108FB
:10224000710137FE03C03FEFE31AF30AF594E794F8
:102250008D819E81861797075CF5A1E0B0E0BA8377
:10226000A983C016D1064CF1D301ED91FC910484F1
:10227000F585E02D2B813C81A8016D817E818A143A
:102280009B041CF04D815E81B801C3010995E418DF
:10229000F508F7FE0AC02D813E8189819A81280FB9
:1022A000391F3E832D83E20CF31C0F5F1F4FD9CFE4
:1022B0002FEF3FEF3A832983D4CF26960FB6F894B9
:1022C000DEBF0FBECDBFDF91CF911F910F91FF9069
:1022D000EF90DF90CF90BF90AF909F908F907F90C6
:1022E0006F905F904F903F902F90089508952091A8
:1022F0004D02260F3327331F21323105ECF4209194
:10230000C602FC0190E080E0243069F082E008958C
:10231000A0914D022191AC01435D5D4FA40FB52FFB
:10232000B11D2C930196861798F380914D02680F8A
:1023300060934D0280E0089581E008951092C602F6
:1023400081E08093C5021092A00261E082E10E94C8
:10235000890561E083E10E948905E9EBF0E0808175
:102360008E7F808380818D7F808388E48093B80016
:1023700085E48093BC00089510929F0210929E0203
:102380001092CD021092EF020E949E1186E895E015
:1023900090939D0280939C0287E895E090939B0226
:1023A00080939A020895CF93DF9391E090932C024B
:1023B0008823B9F0C091B800D091BA008091BC00D8
:1023C0008A7B8093BC0060E082E10E94890560E026
:1023D00083E10E9489050E949E11D093BA00C093A8
:1023E000B800DF91CF9108958F929F92AF92BF92E4
:1023F000CF92DF92EF92FF920F931F93CF93DF93D1
:10240000D091EF02D13208F0D7C0182FC091EE0260
:102410000E9414076B017C018091C60281116BC080
:1024200082E08093C6021093C5028FEF8093C402AE
:102430001092C302D093C202AEECB2E0E2EAF2E044
:1024400080E0D81391C01092A1028091A102CC0F1C
:10245000C82BC093A1028091A002813009F088C0EE
:102460001092A0020E9414076B017C018091A102CE
:102470008093BB008091C8029091C902A091CA02CA
:10248000B091CB02892B8A2B8B2BA1F00E941407D1
:102490000091C8021091C9022091CA023091CB026A
:1024A0006C197D098E099F09061717072807390738
:1024B00008F442C08091BC0083FDD8CF85EC8093A6
:1024C000BC000E9414076B017C018091C60282301F
:1024D00009F450C08091C4028F3F09F46FC080910D
:1024E000C402803209F46CC08091C402803309F4C4
:1024F00069C084E026C08091C8029091C902A09171
:10250000CA02B091CB02892B8A2B8B2B09F484CF82
:102510000E9414078090C8029090C902A090CA023D
:10252000B090CB026C197D098E099F09861697061B
:10253000A806B90608F070CF8091C7020E94D31197
:1025400085E01092CD021092EF021092CC02DF9142
:10255000CF911F910F91FF90EF90DF90CF90BF90A0
:10256000AF909F908F9008959D9191938F5F69CFC9
:1025700085EEA5CF8091C8029091C902A091CA02B0
:10258000B091CB02892B8A2B8B2B09F49ECF0E9412
:1025900014070091C8021091C9022091CA0230911B
:1025A000CB026C197D098E099F09061717072807AA
:1025B000390708F08ACFC0CF81E0C3CF80E0C1CF18
:1025C00082E0BFCF83E0BDCF1F93CF93DF93EA01BB
:1025D000122FDC0111968D919C91DC01ED91FC9103
:1025E0000280F381E02D0995C817D90729F4812FBE
:1025F0000E94F41191E0811190E0892FDF91CF9139
:102600001F910895AF92BF92CF92DF92EF92FF9207
:102610000F931F93CF93DF9300D0CDB7DEB7DC01CC
:10262000211103C018962C911897253008F043C04B
:102630001F964D935D936D937C93529790E080E04D
:10264000E22EF12C8E159F05B4F41A962C911A9750
:1026500021110AC0FD01E80FF91F4387452F562FAE
:10266000672F77270196EECFF701E81BF90BEA0FEA
:10267000FB1F4287F3CF6D018BE0C80ED11C16966D
:102680009C91169717968C91179799838A83AD9092
:10269000BC901197A114B10409F441C019960C9192
:1026A00010E098012E0D3F1DD50114968D919C913F
:1026B0008217930710F480E016C0F50181819281A2
:1026C000208131E03093CC022093EE021092CD02B3
:1026D0001092EF020115110599F421E0A701B6014E
:1026E000C5010E94E4120F900F90DF91CF911F91CE
:1026F0000F91FF90EF90DF90CF90BF90AF90089533
:10270000DC01ED91FC910280F381E02DA801BE0176
:102710006F5F7F4F09950817190769F6DECF12968C
:10272000ED91FC911397309731F214962D913C91D5
:10273000159719960C9110E02330310571F48E7FB6
:1027400089839A830F5F1F4F9E012F5F3F4FA70121
:10275000B601CF010E94460BC6CF2115310519F4F1
:102760009F779983F1CF2230310511F49068F9CF2A
:102770002130310549F79F779064F3CFE0919F02B4
:1027800080919E02E81730F4F0E0E658FD4F80811A
:1027900090E008958FEF9FEF089590919F028091B0
:1027A0009E022FEF3FEF981748F4E92FF0E0E6582C
:1027B000FD4F208130E09F5F90939F02C9010895F3
:1027C00080919E0290919F02891B990B0895CF9250
:1027D000DF92EF92FF920F931F93CF93DF937C01D1
:1027E000CB018A012091CC02222389F0EB016B01FD
:1027F000C40ED51ECC15DD0569F06991D701ED91A8
:10280000FC910190F081E02DC7010995F3CF642F71
:102810000E947711C801DF91CF911F910F91FF9016
:10282000EF90DF90CF900895CF93DF931F92CDB7B5
:10283000DEB769832091CC022223F9F02091EF02C8
:10284000203258F021E030E0FC013383228390E015
:1028500080E00F90DF91CF9108958091CD02E82F15
:10286000F0E0E253FD4F998190838F5F8093CD021A
:102870008093EF0281E090E0ECCF61E0CE01019621
:102880000E947711F7CF81E00C94F411EF92FF9240
:102890000F931F93CF93DF937C01C62F80910F047A
:1028A00090911004009709F459C02091130431E06D
:1028B0003093CC022093EE021092CD021092EF02E0
:1028C000DC01ED91FC910190F081E02D60E0099533
:1028D0008701EE24E394F12CD1E0C15080910F04E4
:1028E00090911004CF3F91F1B0E2EB16F104D8F0D3
:1028F0000E94431480910F049091100420911304BE
:10290000D093CC022093EE021092CD021092EF02EF
:10291000DC01ED91FC910190F081E02D60E00995E2
:10292000EE24E394F12C80910F0490911004F801AF
:102930006491DC01ED91FC910190F081E02D09950D
:10294000BFEFEB1AFB0A0F5F1F4FC7CFDF91CF918D
:102950001F910F91FF90EF900C944314E0911F048E
:10296000F0912004908180912504809589238083B3
:102970008701C15008F438C0F801849120910D04FA
:1029800030910E04232B29F00E94E80A0F5F1F4F9D
:10299000F0CF28E030E040E8E0911B04F0911C0407
:1029A00090912304582F5423D9F05081952B908374
:1029B000E0911D04F0911E04908150912404952B08
:1029C0009083E0911D04F0911E04508190912404A5
:1029D000909595239083469521503109E9F6D6CFFD
:1029E000508190959523E3CFDF91CF911F910F9167
:1029F000FF90EF900895CF93DF93EC018B818823B4
:102A0000A9F089819A81288131E03093CC0220930A
:102A1000EE021092CD021092EF020E94431491E058
:102A2000811190E0892FDF91CF9108950E94BC1110
:102A300081E08B83CE010E94FB14982F8111E1CF9E
:102A4000F1CF1F93CF93DF93EC018D8D9E8D009777
:102A500021F1162F29A131E03093CC022093EE0210
:102A60001092CD021092EF02DC01ED91FC910190E9
:102A7000F081E02D60E009958D8D9E8DDC01ED915A
:102A8000FC910190F081E02D612F09958D8D9E8D37
:102A9000DF91CF911F910C944314ADA5BEA59C91DD
:102AA0008BA9809589238C938B8D9C8D892B31F0FC
:102AB000862FDF91CF911F910C94E80A28E030E037
:102AC00080E8A9A5BAA599A9462F4823C1F04C9141
:102AD000942B9C93ABA5BCA59C914AA9942B9C9349
:102AE000ABA5BCA54C919AA9909594239C938695EF
:102AF0002150310931F7DF91CF911F9108954C9109
:102B000090959423E6CF1F93CF93DF93EC01162F7C
:102B10008D8D9E8D892BB1F12DA93EA94FA958AD60
:102B200060E074E284EF90E00E943F292051310977
:102B30004109510956954795379527952093B80037
:102B400066EA111167EACE010E9421158D8D9E8DD6
:102B5000892B41F129AD3AAD4BAD5CAD60E074E23B
:102B600084EF90E00E943F29205131094109510929
:102B700056954795379527952093B800DF91CF91CB
:102B80001F9108958B8D9C8D892B21F08EAD9FAD6B
:102B90000E94EF0AEFA5F8A990818CA9809589235E
:102BA0008083CECFEFA5F8A980819CA9892B808353
:102BB000E5CF90E080E008952F923F924F925F9290
:102BC0006F927F928F929F92AF92BF92CF92DF923D
:102BD000EF92FF920F931F93CF93DF9300D000D01B
:102BE000CDB7DEB7FC014B01042F96818781998315
:102BF0008A83208031802114310409F439C1418550
:102C000050E0D10114968D919C9184179507C8F4DA
:102C1000B12C8B2D0F900F900F900F90DF91CF91D3
:102C20001F910F91FF90EF90DF90CF90BF90AF90EA
:102C30009F908F907F906F905F904F903F902F90DC
:102C40000895F101808191E09093CC028093EE028F
:102C50001092CD021092EF0220E0BE016F5F7F4F15
:102C6000C1010E94E412B82E882391F2802F90E0D7
:102C70009C838B83D12CC12C01E0AB81BC81CA1613
:102C8000DB0638F6F101848195817D01EC18FD08A1
:102C90008E159F0508F47C01D101AC900E941407A9
:102CA0002B013C018091C602811172C01E2D113290
:102CB00008F010E20093C60221E08B819C818E19FE
:102CC0009F09C816D90608F420E02093C502BFEF7B
:102CD000B093C4021092C3028FEF810F8093C2029F
:102CE0000093A1028091A102AA0CA82AA092A1029D
:102CF0008091A002813009F092C01092A0020E943F
:102D000014072B013C018091A1028093BB008091AC
:102D1000C8029091C902A091CA02B091CB02892B3E
:102D20008A2B8B2BA1F00E9414072091C8023091AE
:102D3000C9024091CA025091CB02641975098609F3
:102D40009709261737074807590708F442C08091AA
:102D5000BC0083FDD8CFE5ECE093BC000E941407D3
:102D60002B013C018091C602813009F45CC0809146
:102D7000C302811710F41091C302A2EAB2E0EAE79D
:102D8000F2E080E0811751F19D9191938F5FFACF2E
:102D90008091C8029091C902A091CA02B091CB0261
:102DA000892B8A2B8B2B09F47DCF0E94140720914D
:102DB000C8023091C9024091CA025091CB026419F5
:102DC000750986099709261737074807590708F034
:102DD00069CF8091C7020E94D31110E010929F0228
:102DE00010939E021E151F0409F012CF34016C0CC3
:102DF0007D1C2301C201861997098E159F05A8F530
:102E0000D10111968D919C91DC01ED91FC91028490
:102E1000F385E02D0995F20181932F01EBCFF5EEBB
:102E2000F093BC009BCF8091C8029091C902A09101
:102E3000CA02B091CB02892B8A2B8B2B09F492CF3B
:102E40000E9414072091C8023091C9024091CA0221
:102E50005091CB026419750986099709261737071F
:102E60004807590708F07ECFB4CFCE0CDF1C05CF42
:102E7000A281B381109709F4CBCE2481358110E073
:102E8000418550E02330310571F4816089839A8354
:102E90004F5F5F4F9401BE016F5F7F4FCD010E9476
:102EA0000A0BB82EB6CE2115310519F49068998316
:102EB000F1CF2230310511F49F77F9CF2130310560
:102EC00049F7906CF4CFCF93DF93EC01BC01655FC1
:102ED0007F4F48850E94DC15882301F1488550E02A
:102EE00030E020E060E070E0CB0124173507CCF43F
:102EF000982F872F762F6627EA85E1110AC0FA01FD
:102F0000E21BF30BEC0FFD1FE2856E2B2F5F3F4F93
:102F1000ECCFFE01E20FF31FE385F7CF6FEF7FEFFA
:102F2000CB01DF91CF9108958F929F92AF92BF9284
:102F3000CF92DF92EF92FF920F931F93CF93DF9385
:102F4000EC014A015B01888199810E9463172A8103
:102F500001E010E002C0000F111F2A95E2F70150B6
:102F60001109012E000C220B330BAB816801790192
:102F70000A2E04C0CC0CDD1CEE1CFF1C0A94D2F7F8
:102F8000C094D094E094F094C622D722E822F9228B
:102F9000E881F981B901A801482159216A217B21E1
:102FA00004C0440F551F661F771FAA95D2F74C29FE
:102FB0005D296E297F292085CF01DF91CF911F9157
:102FC0000F91FF90EF90DF90CF90BF90AF909F90C8
:102FD0008F900C9402130F931F93CF93DF93EC0108
:102FE000888199810E946317AB01BC012A8181E02D
:102FF00090E002C0880F991F2A95E2F70197092EE9
:10300000000CAA0BBB0B2B8104C0769567955795D6
:1030100047952A95D2F78C019D0104231523262379
:103020003723C901B801DF91CF911F910F91089506
:10303000AF92BF92CF92DF92EF92FF920F931F93C6
:10304000CF93DF93CDB7DEB7E8970FB6F894DEBF26
:103050000FBECDBF8C01FC01868D978D1BA21CA2DB
:103060001DA21EA29D8B8C8B1F8A1E8AFF24F394A7
:10307000FD8E8BE390E09B8F8A8F1E8E8EE08C8F6F
:103080004EE0BE01695D7F4FCE0144960E94DC1583
:103090008FA198A5982789279827F80195A784A735
:1030A00089A59AA598278927982797A786A78BA5EA
:1030B0009CA598278927982791AB80AB6DA57EA505
:1030C00076276727762773AB62AB8FA598A99827D9
:1030D0008927982795AB84AB89A99AA9982789272E
:1030E000982797AB86AB8BA99CA998278927982707
:1030F00091AF80AF072E000C880B990B0E94EE2A2F
:1031000020E030E04AEA53E40E944B2A28EB3EE1FB
:1031100042E152E40E946829F80162837383848348
:103120009583868D978D188A198A1A8A1B8A9A83A5
:1031300089831C821B82FA868CE190E098878F83BA
:103140001B86F986CE0101965C019EAB8DAB82E0B9
:103150008FAB83E088AFCE01C5960E94EB17C12CE0
:10316000D12CE12CE5E4FE2E63307105E1F06230F4
:10317000710599F06130710509F4D6C0C12CD12CCC
:10318000F0E8EF2EFFE3FF2E672B69F4C12CD12C62
:1031900050E8E52E56E4F52E06C0C12CD12C70E87F
:1031A000E72E75E4F72EF80164A575A5072E000C2F
:1031B000880B990B0E94EE2AA70196010E944B2AC8
:1031C000F801668377838087918766A577A5072EA8
:1031D000000C880B990B0E94EE2AA70196010E9411
:1031E0004B2AF801628773878487958760A971A944
:1031F000072E000C880B990B0E94EE2AA70196015E
:103200000E944B2AF80166877787808B918B868D89
:10321000978D188A198A1A8A1B8A9A8389831C8235
:103220001B8281E08A872BE130E038872F831B8661
:103230008987BEAAADAA82E08FAB83E088AFCE01BA
:10324000C5960E94EB17C12CD12C33E0E32E33E45A
:10325000F32E6115710519F1C12CD12C23E8E22E52
:1032600022E4F22E61307105D1F093E3C92EDC2CFB
:1032700093E0E92E92E4F92E6230710581F0C12CC1
:10328000D12C40E8E42E4FE3F42E6330710539F47D
:1032900083E3C82EDC2C83E8E82E81E4F82EF801C5
:1032A00064A975A9072E000C880B990B0E94EE2AC1
:1032B000A70196010E944B2AF801628B738B848BC5
:1032C000958B66A977A9072E000C880B990B0E9495
:1032D000EE2AA70196010E944B2AF801668B778B94
:1032E000808F918F60AD71AD072E000C880B990B0C
:1032F0000E94EE2AA70196010E944B2AF801628FD4
:10330000738F848F958FE8960FB6F894DEBF0FBE4B
:10331000CDBFDF91CF911F910F91FF90EF90DF9084
:10332000CF90BF90AF900895C12CD12CE12C66E4D2
:10333000F62E39CF2091F8033091F903C901079691
:1033400097FD079623E0959587952A95E1F72091BB
:10335000F6033091F703829FA001839F500D929F47
:10336000500D112470E060E08091110490911204DE
:103370000C94722D8F929F92AF92BF92CF92DF9258
:10338000EF92FF920F931F93CF93DF938C01EB018A
:10339000DC0114968D919C910E941818F80104810B
:1033A00015810E946B07FE01349620E2DF011D9219
:1033B0002A95E9F7C12CD12C7601C394C882D98211
:1033C000EA82FB82F80126A137A14901B12CA12C88
:1033D0008C829D82AE82BF82C886D986EA86FB86B1
:1033E000688B798B8A8B9B8B2AE038EE4CE151E419
:1033F00066817781808591850E94D22B6C8B7D8B35
:103400008E8B9F8B2AE038EE4CE151E4D8011A965E
:103410006D917D918D919C911D970E94D22B688F0B
:10342000798F8A8F9B8F2AE038EE4CE151E4F801C6
:1034300066857785808991890E94D22B6C8F7D8FDC
:103440008E8F9F8F81E0DF91CF911F910F91FF9021
:10345000EF90DF90CF90BF90AF909F908F900895A6
:103460000F931F93CF93DF938C01EB01DC01149634
:103470008D919C910E941818F801048115810E9479
:103480006B07AB01BC01FE01349680E2DF011D92A7
:103490008A95E9F781E090E0A0E0B0E08883998325
:1034A000AA83BB83F80180A591A5B0E0A0E08C833E
:1034B0009D83AE83BF8384E090E0A0E0B0E0888786
:1034C0009987AA87BB87488B598B6A8B7B8B25E3AF
:1034D0003AEF4EE85CE362897389848995890E949A
:1034E000D22B6C8B7D8B8E8B9F8B25E33AEF4EE836
:1034F0005CE3D80156966D917D918D919C91599781
:103500000E94D22B688F798F8A8F9B8F25E33AEFA9
:103510004EE85CE3F801628D738D848D958D0E9479
:10352000D22B6C8F7D8F8E8F9F8F81E0DF91CF911B
:103530001F910F9108950F931F93CF93DF938C01E9
:10354000EB01DC0114968D919C910E941818F801F2
:10355000048115810E946B07AB01BC01FE0134960A
:1035600080E2DF011D928A95E9F784E290E0A0E015
:10357000B0E088839983AA83BB83F80182A593A5D1
:10358000B0E0A0E08C839D83AE83BF838DE090E0AC
:10359000A0E0B0E088879987AA87BB87488B598BC2
:1035A0006A8B7B8B82819381A481B5818C8B9D8B6F
:1035B000AE8BBF8B81E0DF91CF911F910F9108956A
:1035C0000F931F9300919203109193032091940302
:1035D0003091950340E052E16AE770E090E0041713
:1035E00015072607370740F4769567955795479551
:1035F0009F5F9630A1F797E0892F806A9095869516
:1036000091700E94EF0A80E01F910F910C94500678
:10361000CF93C82F0E94E01A8C2F80620E94E80A84
:1036200080939603CF910C94DD0ACF93DF93D82F2C
:10363000C62F0E94E01A8D2F80620E94E80A8093B4
:1036400096038C2F0E94E80ADF91CF910C94DD0A3B
:10365000CF93C82F0E94E01A8C2F0E94E80A809313
:1036600096038FEF0E94E80AC82F0E94DD0A8C2F74
:10367000CF9108950F931F93CF93182FC62F0E94B9
:10368000E01A812F80620E94E80A8093960300E38B
:1036900011E0C15030F0F80181918F010E94E80AD9
:1036A000F8CFCF911F910F910C94DD0A0E94E01A80
:1036B00080E50E94E80A8093960383E70E94E80A67
:1036C0000C94DD0A0C94E42C0C94E42C0C94E42C63
:1036D0009F92AF92BF92CF92DF92EF92FF920F93A1
:1036E0001F93CF93DF93CDB7DEB7AA970FB6F894A9
:1036F000DEBF0FBECDBF8C01DC0197965C934E936D
:103700009697CA01019699969C938E9398974E5FCF
:103710005F4F9B965C934E939A975E962D913C914A
:103720001BA21CA21DA21EA23D8B2C8B1F8A1E8ACF
:1037300081E08D8F4BE650E05B8F4A8F1E8E8C8F21
:10374000188A198A1A8A1B8A3A8329831C821B8247
:103750008A8728E630E038872F831B8689875E01B9
:10376000B4E1AB0EB11CB8A6AFA289A787E08AA7C7
:1037700041E050E060E070E0CE0187960E9494172F
:10378000CE0187960E94EB17613071058105910586
:1037900039F461E070E080E090E00E943907F0CFFA
:1037A00064E670E080E090E00E94390720E047E0A6
:1037B00050E060E070E0FE0131966F01CF010E94A1
:1037C000021364E670E080E090E00E943907D801BF
:1037D0005E968D919C91188A198A1A8A1B8A9A83FF
:1037E00089831C821B82FF24F394FA8689E190E08E
:1037F00098878F831B86F98620E040E050E0BA016D
:10380000C6010E940213F801868D978D188A198AC5
:103810001A8A1B8A9A8389831C821B82FA868AE110
:1038200090E098878F831B86F986DD8ACC8A83E0B7
:10383000E82EEE8A1F8A40E050E0BA01C5010E94DE
:103840009417D8015E968D919C91188A198A1A8ACC
:103850001B8A9A8389831C821B82FA868BE190E003
:1038600098878F831B86F986DD8ACC8A92E0992E11
:103870009E8AEF8A41E050E060E070E0C5010E945E
:103880009417F801868D978D188A198A1A8A1B8ACF
:103890009A8389831C821B82FA868CE190E0988748
:1038A0008F831B86F986DD8ACC8A9E8AEF8A40E068
:1038B00050E0BA01C5010E949417D8015E968D911F
:1038C0009C91188A198A1A8A1B8A9A8389831C8276
:1038D0001B82FA868BE690E098878F831B86F98699
:1038E00020E041E050E060E070E0C6010E94021379
:1038F00064E670E080E090E00E943907F80180A162
:1039000091A1009739F0DC01ED91FC910280F381E7
:10391000E02D0995F80182A193A1009739F0DC010F
:10392000ED91FC910280F381E02D0995F80184A1CD
:1039300095A1009739F0DC01ED91FC910280F381B3
:10394000E02D099586E090E00E94482CFC0186E27B
:1039500091E09183808380E596E093838283158351
:103960000483D8019196FC93EE93909786E090E0C3
:103970000E94482CFC0188E191E09183808381E5DD
:1039800096E09383828315830483D8019396FC93F6
:10399000EE93929786E090E00E94482CFC018AE02A
:1039A00091E09183808382E596E0938382831583FF
:1039B0000483D8019596FC93EE93949781E0AA96A0
:1039C0000FB6F894DEBF0FBECDBFDF91CF911F9130
:1039D0000F91FF90EF90DF90CF90BF90AF909F90AE
:1039E00008950E946D2DFB0101900020E9F73197A9
:1039F000AF01461B570BDC01ED91FC910280F38176
:103A0000E02D09948F929F92AF92BF920F931F93D4
:103A1000CF93DF93CDB7DEB7A1970FB6F894DEBF93
:103A20000FBECDBF19A2423008F44AE08E010F5DEF
:103A30001F4F842E912CB12CA12CA50194010E9422
:103A40003F29E62FB901CA01EA3004F5E05DD8014B
:103A5000EE938D01232B242B252B79F790E080E02A
:103A6000109729F0BD0180EF92E00E94F31CA1960F
:103A70000FB6F894DEBF0FBECDBFDF91CF911F917F
:103A80000F91BF90AF909F908F900895E95CDFCF2A
:103A90004F925F926F927F928F929F92AF92BF925E
:103AA000CF92DF92EF92FF920F931F93CF936B0110
:103AB0007C01742EAC019B010E94432C6CE871E0E8
:103AC000811126C046015701E894B7F82FEF3FEF68
:103AD0004FE75FE7C501B4010E94432C81110CC080
:103AE0002FEF3FEF4FE75FE7C501B4010E94462A81
:103AF00060E971E0181664F02FEF3FEF4FE75FE4E5
:103B0000C701B6010E94C52B1816ACF464E971E038
:103B100080EF92E0CF911F910F91FF90EF90DF9097
:103B2000CF90BF90AF909F908F907F906F905F905D
:103B30004F900C94F31C2FEF3FEF4FE75FECC70162
:103B4000B6010E94462A87FDE1CF20E030E0A901BE
:103B5000C701B6010E94462A10E000E087FF0AC0B4
:103B60006DE280EF92E00E9417088C01F7FAF09462
:103B7000F7F8F094C0E060E070E080E09FE37C162E
:103B800041F020E030E040E251E40E944B2ACF5F58
:103B9000F6CFA70196010E9468292B013C010E94E3
:103BA000BD2A4B015C014AE00E94021D7C01E00E2F
:103BB000F11ECC23C1F1C501B4010E94EC2A9B0186
:103BC000AC01C301B2010E9467294B015C016EE2A6
:103BD00080EF92E00E941708E80EF91EC15018F11C
:103BE00020E030E040E251E4C501B4010E94D22B54
:103BF0002B013C010E94BD2A4B01B12CA12C4AE0B3
:103C0000C501B4010E94021DE80EF91EC501B401F0
:103C10000E94EC2A9B01AC01C301B2010E946729FA
:103C20004B015C01DBCFC701CF911F910F91FF903A
:103C3000EF90DF90CF90BF90AF909F908F907F904C
:103C40006F905F904F9008950F931F93CF93DF93E2
:103C5000EC010E94F31C8C0168E971E0CE010E9426
:103C6000F31C800F911FDF91CF911F910F91089549
:103C70000F931F93CF93DF938C01EB0188E2FB013D
:103C800011928A95E9F74BE050E06BE971E0CE01C3
:103C90000E94792D1B8681E090E0A0E0B0E08C8747
:103CA0009D87AE87BF87F80182819381092E000C22
:103CB000AA0BBB0B888B998BAA8BBB8B8DE090E0FA
:103CC000A0E0B0E08C8B9D8BAE8BBF8B1CA21DA2A5
:103CD0001EA21FA280E090E0A0E2B2EC8C8F9D8F2C
:103CE000AE8FBF8F80E090E0A2EDB2E4888F998F15
:103CF000AA8FBB8F84E09DEAA0E4BBE388A399A3CD
:103D0000AAA3BBA3DF91CF911F910F9108950F93A9
:103D10001F93CF93DF938C01EB0188E2FB0111929B
:103D20008A95E9F74BE050E065EA71E0CE010E9428
:103D3000792D1B8641E050E060E070E04C875D87A4
:103D40006E877F87F80182819381092E000CAA0B70
:103D5000BB0B888B998BAA8BBB8B4C8B5D8B6E8B33
:103D60007F8B1CA21DA21EA21FA28AE098EEACE1CE
:103D7000B3EC8C8F9D8FAE8FBF8F8AE098EEACE155
:103D8000B3E4888F998FAA8FBB8F83E29BEDA9E75D
:103D9000BDE388A399A3AAA3BBA3DF91CF911F91F1
:103DA0000F9108950F931F93CF93DF938C01EB0135
:103DB00088E2FB0111928A95E9F74BE050E06FEA47
:103DC00071E0CE010E94792D1B8681E090E0A0E099
:103DD000B0E08C879D87AE87BF87F8018281938191
:103DE000092E000CAA0BBB0B888B998BAA8BBB8B63
:103DF00084E090E0A0E0B0E08C8B9D8BAE8BBF8B1D
:103E00001CA21DA21EA21FA287ED93EAABE0B2EC9A
:103E10008C8F9D8FAE8FBF8F87ED93EAABE0B2E4BE
:103E2000888F998FAA8FBB8F8AE99BEAABE0B9E3B1
:103E300088A399A3AAA3BBA3DF91CF911F910F9150
:103E4000089585ED8093BC008091C8029091C902CD
:103E5000A091CA02B091CB020796A11DB11D23E02B
:103E6000B695A795979587952A95D1F72091BC008F
:103E700024FD03C01092C60208954091C8025091DB
:103E8000C9026091CA027091CB02452B462B472B89
:103E900069F30097A105B10541F02AE22A95F1F7EF
:103EA00000C00197A109B109E1CF8091C7020C942C
:103EB000D3111F920F920FB60F9211242F933F939D
:103EC0008F939F93AF93BF938091710290917202F1
:103ED000A0917302B09174023091700223E0230F1D
:103EE0002D3758F50196A11DB11D209370028093C6
:103EF000710290937202A0937302B0937402809146
:103F0000750290917602A0917702B09178020196A5
:103F1000A11DB11D8093750290937602A093770244
:103F2000B0937802BF91AF919F918F913F912F9164
:103F30000F900FBE0F901F90189526E8230F029642
:103F4000A11DB11DD2CF1F920F920FB60F92112457
:103F50002F933F934F935F936F937F938F939F9391
:103F6000AF93BF93EF93FF9380EF92E00E94F5072A
:103F7000FF91EF91BF91AF919F918F917F916F9141
:103F80005F914F913F912F910F900FBE0F901F9017
:103F900018951F920F920FB60F9211242F938F93A3
:103FA0009F93EF93FF93E0910003F09101038081D1
:103FB000E0910603F091070382FD1BC09081809180
:103FC00009038F5F8F7320910A03821741F0E091FC
:103FD0000903F0E0E051FD4F958F80930903FF91B5
:103FE000EF919F918F912F910F900FBE0F901F9087
:103FF00018958081F4CF1F920F920FB60F92112463
:104000002F933F934F935F936F937F938F939F93E0
:10401000AF93BF93EF93FF938091B900887F803671
:1040200009F44AC0F0F5883209F4A7C018F58031C8
:1040300009F49BC0B8F4882309F4F9C0883009F466
:1040400094C0FF91EF91BF91AF919F918F917F911C
:104050006F915F914F913F912F910F900FBE0F90F5
:104060001F901895883109F488C0803251F78093E9
:10407000C40214C0803409F49DC040F48033B9F305
:104080008833F9F68093C40285ECB0C0803509F41A
:1040900085C0883509F496C0883499F60E94211F9E
:1040A000D0CF883909F48CC038F5883729F050F41E
:1040B000883611F0803729F683E08093C60210928B
:1040C0006F0257C0883809F47BC0803919F08038F6
:1040D00009F0B7CF80916F02803208F071C0E09193
:1040E0006F0281E08E0F80936F028091BB00F0E041
:1040F000E15BFD4F80833DC0803B39F0E0F4803AC6
:1041000009F479C0883A09F09CCF84E08093C60214
:1041100010924E0210924D02E0919C02F0919D028D
:10412000099580914D0281110FC081E080934D026D
:1041300010922D0209C0803C09F4A6CF883C09F4F6
:10414000A3CF883B09F07DCFE0914E0281E08E0F36
:1041500080934E02F0E0E35DFD4F80818093BB00D1
:1041600090914E0280914D0229C08091A1028093CE
:10417000BB0085EC8093BC0064CF9091C30280911A
:10418000C202981758F5E091C30281E08E0F809328
:10419000C302F0E0EE55FD4F8081E9CFE091C3020C
:1041A00081E08E0F8093C3028091BB00F0E0EE555A
:1041B000FD4F80839091C3028091C2029817C8F28C
:1041C00085E8D8CFE091C30281E08E0F8093C302CF
:1041D0008091BB00F0E0EE55FD4F80838091C502D9
:1041E00081115CCF81E08093A00284EA8093BC00BF
:1041F0001092C60226CF85EC8093BC001092C602B6
:1042000080916F02803230F4E0916F02F0E0E15B68
:10421000FD4F108260916F0270E0E0919A02F09180
:104220009B028FE492E0099510926F020ACF1092E0
:10423000C40234CFE0EFF2E01382128248EE53E082
:1042400060E070E044835583668377838AE391E07E
:104250009183808385EC90E09587848784EC90E05F
:104260009787868780EC90E0918B808B81EC90E043
:10427000938B828B82EC90E0958B848B86EC90E024
:10428000978B868B118E128E138E148EA6EEB3E052
:1042900013961C921E92129714964D935D936D93F4
:1042A0007C9317978CE491E011969C938E93E2EFA8
:1042B000F3E01382128220E830E03583248380E229
:1042C00090E0978386833187208793878287168A39
:1042D000158614861786168691E0958B948B2FEFA2
:1042E0003FEF338B228B318B208B978B108E128E6E
:1042F000118E24E631E031832083148E138EB68F25
:10430000A58F10A2178E8FEF84A385A386A387A302
:1043100080A740E85AE166E070E045AB56AB67AB7A
:1043200070AF40EA56E861E070E041AF52AF63AF72
:1043300074AF80E586AF17AEECEAF3E02EE531E02E
:1043400031832083178E168E11A210A213A212A2FF
:1043500015A214A2EEE8F3E087E0828388E083836D
:1043600040E856E968E970E04483558366837783C3
:1043700080E28187108A118A85E0838B948B85E0A7
:1043800090E0A0E0B0E0828F938FA48FB58F8DE88E
:1043900093E09183808312860895CF93DF93CDB706
:1043A000DEB7C258D1090FB6F894DEBF0FBECDBF3D
:1043B000789484B5826084BD84B5816084BD85B500
:1043C000826085BD85B5816085BD80916E0081600C
:1043D00080936E00109281008091810082608093B2
:1043E00081008091810081608093810080918000B4
:1043F0008160809380008091B10084608093B100DF
:104400008091B00081608093B00080917A008460D8
:1044100080937A0080917A00826080937A00809104
:104420007A00816080937A0080917A00806880931E
:104430007A001092C100E0910003F091010382E044
:104440008083E091FC02F091FD021082E091FE0277
:10445000F091FF028FEC808310920803E091040337
:10446000F091050386E08083E0910203F09103035D
:10447000808180618083E0910203F0910303808159
:1044800088608083E0910203F0910303808180685B
:104490008083E0910203F091030380818F7D80830C
:1044A0008091110490911204892B11F10E949A19A4
:1044B0002091F8033091F9038091F6039091F7036E
:1044C000213231050CF087C0B9016052710977FFC4
:1044D00002C06F5F7F4F759567958357910997FD70
:1044E000019600E210E023E730E048EB55E086C09B
:1044F0002091F8033091F903C901079697FD0796BB
:10450000B3E095958795BA95E1F72091F603309140
:10451000F703AC01429FC001439F900D529F900D45
:1045200011240E94482C9093120480931104892B2B
:1045300009F0BCCF60E082E00E94DE0560E085E12A
:104540000E94DE0560E084E10E94DE0560E083E019
:104550000E94DE058091CA039091CB03009711F071
:104560000E94E42C86E090E00E94482CFC0188E642
:10457000808386EE93E092838183138280E290E0D1
:1045800095838483F093CB03E093CA0305E011E0A5
:10459000E090CA03F090CB030E94BC11D7011396A0
:1045A0001C93C7010E94FB14811153C46AE070E0A0
:1045B00080E090E00E943907015051F769EB71E00B
:1045C00080EF92E00E94241E6AE070E080E090E0BC
:1045D0000E943907F9CFB9016054710977FF02C011
:1045E0006F5F7F4F759567958255910997FD01968D
:1045F00000E410E022E530E048E957E09595879522
:104600000E94681082E08093140480910F049091BE
:104610001004892B09F4CBC08CE3809313040E940F
:10462000BC1180911A0487FD1EC061E00E94DE0566
:1046300061E080911A040E94890561E070E080E0E9
:1046400090E00E94390760E080911A040E94890579
:104650006AE070E080E090E00E94390761E08091BC
:104660001A040E94890580910F0490911004892BEF
:1046700009F42AC12091270430912804409129048B
:1046800050912A0460E074E284EF90E00E943F2998
:10469000205131094109510956954795379527957C
:1046A0002093B80064E084EB95E00E94461460918A
:1046B000F803615082EF93E00E94211564E080EBE3
:1046C00095E00E9446148091140460E1813009F065
:1046D00064E182EF93E00E94211564E08CEA95E0AA
:1046E0000E9446148FE880932F048091F6039091E6
:1046F000F7038038910509F000C18091F80390918B
:10470000F9038034910509F008C1809114048130C7
:1047100009F0F1C08FE980932F0412E16AED82EF76
:1047200093E00E942115612F82EF93E00E942115F2
:1047300061E882EF93E00E94211560912F0482EFDF
:1047400093E00E94211569ED82EF93E00E9421150C
:104750008091140462E2813009F061EF82EF93E00E
:104760000E94211566E086EA95E00E944614809139
:104770000F0490911004892B09F4D3C020912B04CD
:1047800030912C0440912D0450912E0460E074E28D
:1047900084EF90E00E943F292051310941095109DD
:1047A00056954795379527952093B800C3CE61E07D
:1047B000809118040E94DE0561E0809119040E9436
:1047C000DE0580911804082E000C990BFC01E156BF
:1047D000F54FE491F0E0EE0FFF1FED59F54F2591F5
:1047E00034913093200420931F04FC01E557F54FCA
:1047F000E491E093250480911904082E000C990B94
:10480000FC01E156F54FE491F0E0EE0FFF1FED598A
:10481000F54FA591B491B0932204A0932104FC011B
:10482000E557F54FE491E09326048C91E82BEC9347
:1048300080910D0490910E04892B19F00E940F06AF
:10484000F0CE61E0809116040E94DE0561E0809167
:1048500017040E94DE0580911604082E000C990BA7
:10486000FC01E156F54FE491F0E0EE0FFF1FED592A
:10487000F54F2591349130931C0420931B04FC01C7
:10488000E557F54FE491E093230480911704082E37
:10489000000C990BFC01E156F54FE491F0E0EE0FAE
:1048A000FF1FED59F54FA591B491B0931E04A0934D
:1048B0001D04FC01E557F54FE491E09324048C912D
:1048C000E095E823EC93ADCE80910D0490910E0419
:1048D000892B31F080913004909131040E94EF0ACD
:1048E000E0912104F091220490818091260480952A
:1048F00089238083D7CE8FEC0ECF8036910569F463
:104900008091F8039091F903409739F48091140451
:10491000813029F480E180932F0412E0FFCE8FEAEA
:10492000FACFE0912104F091220480819091260435
:10493000892B8083FFCD80910D0490910E04892BEB
:1049400031F080913004909131040E94EF0AE0919F
:104950002104F0912204908180912604809589237E
:104960008083C3C30E94431480910F04909110046C
:10497000892B09F413C220912B0430912C0440910F
:104980002D0450912E0460E074E284EF90E00E94C8
:104990003F292051310941095109569547953795CD
:1049A00027952093B80060ED77E080E090E00E94CA
:1049B0003907AE01435F5F4FEB965FAF4EAFEB97AA
:1049C00018E189E490E08C0F9D1F0C96CF57DF4FC4
:1049D00099838883C158D040812C912C54018394B1
:1049E000DE01D196ED96BFAFAEAFED9730E0232E4E
:1049F00030E0332E0E946B076B017C018CEA93E060
:104A00000E941818EB96EEADFFADEB97212F119297
:104A10002A95E9F784E290E0A0E0B0E089839A83E8
:104A2000AB83BC838091D6039091D703B0E0A0E024
:104A30008D839E83AF83B8878DE090E0A0E0B0E0E7
:104A400089879A87AB87BC87C98ADA8AEB8AFC8A0E
:104A50008091AE039091AF03A091B003B091B103E8
:104A60008D8B9E8BAF8BB88FCF57DF4FA881B981CD
:104A7000C158D040E12F1D92EA95E9F72D968CAEF2
:104A80009DAEAEAEBFAE2D978091D2039091D30371
:104A9000B0E0A0E061968CAF9DAFAEAFBFAF6197C5
:104AA00065968CAE9DAEAEAEBFAE65976D96CCAE44
:104AB000DDAEEEAEFFAE6D972AE038EE4CE151E48C
:104AC0006091B2037091B3038091B4039091B503E8
:104AD0000E94D22BC358DF4F688379838A839B83DC
:104AE000CD57D040A1966CAF7DAF8EAF9FAFA19751
:104AF0002AE038EE4CE151E46091B6037091B703BF
:104B00008091B8039091B9030E94D22BA5966CAF07
:104B10007DAF8EAF9FAFA5972AE038EE4CE151E410
:104B20006091BA037091BB038091BC039091BD0367
:104B30000E94D22B2B013C01A9964CAE5DAE6EAE0D
:104B40007FAEA997ED96AEADBFADED97E12F1D926B
:104B5000EA95E9F78DA29EA2AFA2B8A68091D403F0
:104B60009091D503B0E0A0E089A79AA7ABA7BCA716
:104B700084E090E0A0E0B0E08DA79EA7AFA7B8AB1F
:104B8000CDAADEAAEFAAF8AE25E33AEF4EE85CE341
:104B90006091BE037091BF038091C0039091C103E7
:104BA0000E94D22B69AF7AAF8BAF9CAF25E33AEF6F
:104BB0004EE85CE36091C2037091C3038091C4032B
:104BC0009091C5030E94D22B21966CAF7DAF8EAF22
:104BD0009FAF219725E33AEF4EE85CE36091C6036F
:104BE0007091C7038091C8039091C9030E94D22B92
:104BF00025966CAF7DAF8EAF9FAF2597A301920135
:104C0000C358DF4F688179818A819B81CD57D0401D
:104C10000E94E7296B017C0167EF71E080EF92E071
:104C20000E94F31C20E030E044E353E4C701B601E6
:104C30000E94D22B2BED3FE049E450E40E944B2A26
:104C400020E030E044EB52E40E94682942E00E94F8
:104C5000481D68E971E080EF92E00E94F31CA19684
:104C60002CAD3DAD4EAD5FADA197A5966CAD7DADC4
:104C70008EAD9FADA5970E944B2A0E94172A6B010B
:104C80007C016FEF71E080EF92E00E94F31C20E066
:104C900030E044E353E4C701B6010E94D22B2BED70
:104CA0003FE049E450E40E944B2A42E00E94481D44
:104CB00068E971E080EF92E00E94F31C8CE0EFE184
:104CC000F2E0DE01A359BF4F01900D928A95E1F702
:104CD0008091A20381116CC000919703D02E0D30FA
:104CE00010F09CE0D92E0D190E94E01A80EA0E9473
:104CF000E80A80939603DE01A359BF4F7D01DA9441
:104D0000BFEFDB1609F458C0F70181917F010E94C3
:104D1000E80AF5CFE0911F04F09120048081909182
:104D20002504892B80830E151F0509F41DCEF8017B
:104D300081918F0120910D0430910E04232B19F0E5
:104D40000E94E80AF0CF28E030E040E8E0911B0440
:104D5000F0911C0490912304542F5823D9F05081D2
:104D6000952B9083E0911D04F0911E049081509149
:104D70002404952B9083E0911D04F0911E04508132
:104D80009091240490959523908346952150310964
:104D9000E9F6C9CF508190959523E3CFE0912104A6
:104DA000F0912204808190912604892B8083FBCD91
:104DB00000E08CE0D82E98CF015020F080E00E94D7
:104DC000E80AFACF0E94DD0A81E00E94D5050E9420
:104DD0006B076B017C018FEF0E94081B809196038B
:104DE000807331F50E946B076C197D098E099F094C
:104DF000603671058105910570F381E08093A3030E
:104E000063E172E080EF92E00E94241E64EF71E0A3
:104E100080E090E00E9439072114310409F4EACDC2
:104E20000E94E107882309F4E5CD0E940000E2CD4D
:104E300080E00E94D50560E787E00E94151B809105
:104E4000960366E072E084FFDDCF81EE0E94081BCE
:104E5000D7CF8091CA039091CB03188A198A1A8AF6
:104E60001B8A9A8389831C821B821A8785E790E0BC
:104E700098878F831B861987CE0101960E9463173E
:104E8000683671058105910509F098CB40E050E046
:104E9000BA018CEA93E00E94681B882309F48ECB48
:104EA00065ED71E080EF92E00E94241E0E940F06E3
:104EB000809190038F3F09F49EC0909191039F3F92
:104EC00009F499C0891741F061E00E94DE0561E0B4
:104ED000809191030E94DE0580E00E94D50581E06B
:104EE0000E94500665E070E080E090E00E94390783
:104EF0006FE584E00E94151B86E00E94281B45E5B3
:104F000050E060E070E04093A4035093A5036093E9
:104F1000A6037093A703682F677D86E00E94151B88
:104F200086E00E94281B8DE10E94281B182F0E94FA
:104F3000561B8DE10E94281B91E0181390E090937E
:104F40009E03882341F0181302C00E94561B60E0A4
:104F50008DE10E94151B1092A00360E08CE10E947D
:104F6000151B1092A2036FE381E00E94151B63E002
:104F700082E00E94151B80E28093970311E160910B
:104F80009703812F0E94151B1F5F1731C1F763E044
:104F900083E00E94151B85E08093A1036CE40E94CE
:104FA000151B60E787E00E94151B82EE0E94081B1C
:104FB00081EE0E94081B6CE080E00E94151B80E0DF
:104FC0000E94281B80939D0381FD0BC0682F6260A7
:104FD00060939D0380E00E94151B8BE19EE4019786
:104FE000F1F780919D038E3031F464EE71E080EF33
:104FF00092E00E94241E6091A1038AE00E943A1B65
:105000006091A10380E10E943A1B86E00E94281B68
:10501000887F682F616086E00E94151B80E00E94F7
:10502000D5058091A4039091A5030E944506809127
:10503000A003882319F081EE0E94081B60919D0354
:105040006E7F60939D0380E00E94151B82E00E94AA
:10505000281BE8E5FAE0E49101E010E0B80101C0A6
:10506000660FEA95EAF7682B82E00E94151B109202
:10507000FF031092FE038AE090E090930104809376
:10508000000481E0809306048093070410930504D4
:105090000093040410930304009302040E949A19DD
:1050A00061EF71E082EF93E00E94241E80910F0473
:1050B00090911004892B09F43ECC20912704309163
:1050C00028044091290450912A0460E074E284EF9E
:1050D00090E00E943F29205131094109510956951C
:1050E0004795379527952093B80065E08EE59AE0BF
:1050F0000E9446146091F603615082EF93E00E9493
:1051000021152091F8033091F903C901079697FD05
:105110000796F3E095958795FA95E1F72091F603C8
:105120003091F703829F7001839FF00C929FF00CE7
:105130001124009111041091120480910F04909198
:105140001004E00EF11E009709F4E4CD2091130441
:1051500031E03093CC022093EE021092CD021092F7
:10516000EF02DC01ED91FC910190F081E02D60E413
:105170000995CC24C394D12C9924939480910F0445
:1051800090911004E016F10609F4ECCBB0E2CB16D6
:10519000D104D8F00E94431480910F049091100420
:1051A000209113049092CC022093EE021092CD0233
:1051B0001092EF02DC01ED91FC910190F081E02D65
:1051C00060E40995CC24C394D12C80910F04909174
:1051D00010045801BFEFAB1ABB0ADC01ED91FC9142
:1051E0000190F081E02DD8016C910995BFEFCB1AA9
:1051F000DB0A8501C3CF8EE591E09093AD038093E8
:10520000AC038091CC039091CD03009739F0DC0181
:10521000ED91FC910280F381E02D09958091CE0300
:105220009091CF03009739F0DC01ED91FC91028061
:10523000F381E02D09958091D0039091D1030097DF
:1052400039F0DC01ED91FC910280F381E02D0995AC
:105250008091CA039091CB03009711F00E94E42C37
:1052600084E691E09093F3038093F203809111041C
:1052700090911204009711F00C94E42C0895A1E28F
:105280001A2EAA1BBB1BFD010DC0AA1FBB1FEE1FC0
:10529000FF1FA217B307E407F50720F0A21BB30B0B
:1052A000E40BF50B661F771F881F991F1A9469F787
:1052B00060957095809590959B01AC01BD01CF01E3
:1052C0000895EE0FFF1F0590F491E02D09945058BA
:1052D000BB27AA270E947F290C948B2B0E947D2B31
:1052E00038F00E94842B20F039F49F3F19F426F403
:1052F0000C94532B0EF4E095E7FB0C944D2BE92F07
:105300000E949C2B58F3BA1762077307840795070E
:1053100020F079F4A6F50C94BE2B0EF4E0950B2E3C
:10532000BA2FA02D0B01B90190010C01CA01A001F7
:105330001124FF27591B99F0593F50F4503E68F152
:105340001A16F040A22F232F342F4427585FF3CF93
:10535000469537952795A795F0405395C9F77EF464
:105360001F16BA0B620B730B840BBAF09150A1F0AD
:10537000FF0FBB1F661F771F881FC2F70EC0BA0F33
:10538000621F731F841F48F4879577956795B795BB
:10539000F7959E3F08F0B0CF9395880F08F09927B6
:1053A000EE0F9795879508950E947D2B60F080E819
:1053B00091E009F49EEF0E94842B28F040E851E030
:1053C00071F45EEF0CC00C94532B0C94BE2BE92FA0
:1053D000E0780E949C2B40F3092E052AB1F3261792
:1053E00037074807590738F00E2E07F8E02569F00F
:1053F000E025E0640AC0EF6307F8009407FADB01D8
:10540000B9019D01DC01CA01AD01EF930E94622A3E
:105410000E948B2B0E94172A5F91552339F02BEDA8
:105420003FE049E450FD49EC0C9468290895DF936E
:10543000DD27B92FBF7740E85FE316161706480748
:105440005B0718F4D92F0E94CA2B9F938F937F93E9
:105450006F930E943F2CE8E6F0E00E94562B0E94DA
:105460008B2B2F913F914F915F910E94E52BDD2374
:1054700051F09058A2EA2AED3FE049EC5FE3D07882
:105480005D270E947F29DF910C948B2B0E94292B92
:1054900008F481E008950E945F2A0C948B2B0E94EF
:1054A000842B58F00E947D2B40F029F45F3F29F0B7
:1054B0000C944D2B51110C94BF2B0C94532B0E9428
:1054C0009C2B68F39923B1F3552391F3951B550B4E
:1054D000BB27AA2762177307840738F09F5F5F4FC7
:1054E000220F331F441FAA1FA9F335D00E2E3AF006
:1054F000E0E832D091505040E695001CCAF72BD01E
:10550000FE2F29D0660F771F881FBB1F261737076E
:105510004807AB07B0E809F0BB0B802DBF01FF27A0
:1055200093585F4F3AF09E3F510578F00C944D2B05
:105530000C94BF2B5F3FE4F3983ED4F386957795A8
:105540006795B795F7959F5FC9F7880F911D969559
:10555000879597F90895E1E0660F771F881FBB1FB5
:10556000621773078407BA0720F0621B730B840B62
:10557000BA0BEE1F88F7E09508950E94A42B88F0DF
:105580009F5798F0B92F9927B751B0F0E1F0660F07
:10559000771F881F991F1AF0BA95C9F714C0B13048
:1055A00091F00E94BE2BB1E008950C94BE2B672FA2
:1055B000782F8827B85F39F0B93FCCF38695779577
:1055C0006795B395D9F73EF4909580957095619560
:1055D0007F4F8F4F9F4F0895E89409C097FB3EF48B
:1055E00090958095709561957F4F8F4F9F4F992330
:1055F000A9F0F92F96E9BB279395F69587957795AE
:105600006795B795F111F8CFFAF4BB0F11F460FF6D
:105610001BC06F5F7F4F8F4F9F4F16C0882311F0C5
:1056200096E911C0772321F09EE8872F762F05C0D9
:10563000662371F096E8862F70E060E02AF09A9574
:10564000660F771F881FDAF7880F9695879597F969
:105650000895990F0008550FAA0BE0E8FEEF161603
:105660001706E807F907C0F012161306E407F50756
:1056700098F0621B730B840B950B39F40A2661F0CA
:10568000232B242B252B21F408950A2609F4A1406D
:10569000A6958FEF811D811D089597F99F6780E87A
:1056A00070E060E008959FEF80EC0895DF93CF9362
:1056B0001F930F93FF92EF92DF927B018C0168940E
:1056C00006C0DA2EEF010E94E52BFE01E894A591B9
:1056D0002591359145915591A6F3EF010E947F29BF
:1056E000FE019701A801DA9469F7DF90EF90FF902F
:1056F0000F911F91CF91DF91089500240A941616FF
:10570000170618060906089500240A9412161306AF
:10571000140605060895092E0394000C11F488233D
:1057200052F0BB0F40F4BF2B11F460FF04C06F5F59
:105730007F4F8F4F9F4F089557FD9058440F551F2F
:1057400059F05F3F71F04795880F97FB991F61F003
:105750009F3F79F087950895121613061406551F7A
:10576000F2CF4695F1DF08C0161617061806991FE6
:10577000F1CF86957105610508940895E894BB27DB
:1057800066277727CB0197F908950E94292B08F403
:105790008FEF08959B01AC0160E070E080E89FE32B
:1057A0000C944B2A0E94E52B0C948B2B0E947D2B92
:1057B00038F00E94842B20F0952311F00C944D2B8F
:1057C0000C94532B11240C94BF2B0E949C2B70F330
:1057D000959FC1F3950F50E0551F629FF001729F96
:1057E000BB27F00DB11D639FAA27F00DB11DAA1FA5
:1057F000649F6627B00DA11D661F829F2227B00DF2
:10580000A11D621F739FB00DA11D621F839FA00D7C
:10581000611D221F749F3327A00D611D231F849FCC
:10582000600D211D822F762F6A2F11249F57504023
:105830009AF0F1F088234AF0EE0FFF1FBB1F661F9E
:10584000771F881F91505040A9F79E3F510580F067
:105850000C944D2B0C94BF2B5F3FE4F3983ED4F394
:10586000869577956795B795F795E7959F5FC1F70B
:10587000FE2B880F911D9695879597F908959B01AA
:10588000AC010C94D22B0E94292B880B990B089504
:105890000F931F93CF93DF938230910510F482E032
:1058A00090E0E0913404F091350430E020E0B0E085
:1058B000A0E0309799F42115310509F44AC0281B5E
:1058C000390B24303105D8F58A819B81611571052A
:1058D00089F1FB0193838283FE0111C040815181D4
:1058E0000281138148175907E0F04817590799F4C6
:1058F000109761F012960C93129713961C933296A0
:10590000CF01DF91CF911F910F910895009334043F
:1059100010933504F4CF2115310551F04217530788
:1059200038F0A901DB019A01BD01DF01F801C1CF07
:10593000EF01F9CF9093350480933404CDCFFE016D
:10594000E20FF31F81939193225031093983288309
:10595000D7CF2091320430913304232B41F420918E
:1059600002013091030130933304209332042091DB
:105970000001309101012115310541F42DB73EB7E9
:105980004091040150910501241B350BE091320434
:10599000F0913304E217F307A0F42E1B3F0B2817F6
:1059A000390778F0AC014E5F5F4F2417350748F098
:1059B0004E0F5F1F509333044093320481939193B1
:1059C0009FCFF0E0E0E09CCFCF93DF930097E9F02A
:1059D000FC01329713821282A0913404B0913504F5
:1059E000ED0130E020E01097A1F420813181820F99
:1059F000931F20913204309133042817390709F09E
:105A000061C0F0933304E0933204DF91CF910895A5
:105A1000EA01CE17DF07E8F54A815B819E01411557
:105A20005105B1F7E901FB83EA8349915991C40F0C
:105A3000D51FEC17FD0761F4808191810296840FD8
:105A4000951FE90199838883828193819B838A834F
:105A5000F0E0E0E012968D919C9113970097B9F5D4
:105A60002D913C911197CD010296820F931F2091A9
:105A70003204309133042817390739F6309751F53D
:105A80001092350410923404B0933304A09332047E
:105A9000BCCFD383C28340815181840F951FC81727
:105AA000D90761F44E5F5F4F88819981480F591F74
:105AB000518340838A819B819383828321153105A1
:105AC00009F0B0CFF0933504E09334049ECFFD018C
:105AD000DC01C0CF13821282D7CF81E090E0F8942E
